:100000006F00806F13000000130000001300000059
:100010001300000013000000130000001300000094
:100020001300000013000000130000001300000084
:08003000130000007300100032
:100038000000000000000000E8010000EC010000E2
:100048000000000090060000000000000000000012
:100058009206000094060000000000000000000066
:10006800960600000000000098060000000000004E
:100078009A0600009C0600009E060000A0060000EC
:10008800A2060000A4060000A6060000A8060000BC
:10009800AA060000AC060000AE060000B00600008C
:1000A800B2060000B4060000B6060000B80600005C
:1000B800BA060000BC060000BE060000C00600002C
:1000C800C2060000C4060000C6060000C8060000FC
:1000D800CA060000CC060000CE060000D0060000CC
:1000E800D2060000D4060000D6060000D80600009C
:1000F800DA060000DC060000DE060000E00600006C
:10010800E2060000E4060000E6060000E80600003B
:10011800EA060000EC060000EE060000F00600000B
:10012800F2060000F4060000F606000000000000D9
:080138000000000000000000BF
:100140003D432A876373C3029377F700BDEFADE5A4
:10015000937606FF3D8ABA960CC34CC30CC74CC7B6
:100160004107E36BD7FE11E28280B306C3408A06E3
:100170009702000096966780A6002307B700A306A3
:10018000B7002306B700A305B7002305B700A304F3
:10019000B7002304B700A303B7002303B700A302EB
:1001A000B7002302B700A301B7002301B700A300E3
:1001B000B7002300B700828093F5F50F9396850072
:1001C000D58D93960501D58D61B79396270097023B
:1001D000000096968682E78086FA9680C1171D8F6A
:1001E0003E96E374C3F8A5B77300203001A037250D
:1001F00000007971130585FE06D622D426D24AD096
:100200004ECE52CC56CA5AC85EC6EF00904437173D
:1002100002405C4393E707085CC3EF007020716500
:1002200013050520EF003022996773900780812B1A
:10023000854713055003216923ACF182AD23914911
:1002400023A20182210913844182372B0000B72B9E
:100250000000084083A781836377F5009384418081
:100260009C40638A370B37250000B78700081305C9
:10027000C50123A0F182B79A0008EF00903D1384D6
:100280000182370B00209149084093040B076378E3
:10029000550113894180832709006381370B372576
:1002A0000000B78700081305C5021CC0EF00703AB4
:1002B0001C4003D604000147B79500089384818051
:1002C00063E7B70811C31CC09C40C9EF3725000085
:1002D00013050504EF00F037C121371702405C43D6
:1002E00093F7F7F75CC3EF00B013716513050520B2
:1002F000EF00701599679387870873900780B25055
:100300002254884002599254F249624AD24A424BDE
:10031000B24B456182804A953205F92988C09C40DC
:100320006386370113054BFFEF00B03213858B0056
:10033000EF0030321C4085071CC021BF83D504006C
:10034000ED291C402320A90089071CC035BF94401B
:10035000B5DA03D707006304E60023A00400890789
:100360000547A9BF3725000013058505A5B72D71E1
:100370000A8723282111232E1110232C8110232AD0
:100380009110232631112324411181473A89930684
:1003900000041CC385071107E39DD7FE3725000025
:1003A00013050507EF00F02A371702405C4393E777
:1003B00007085CC3EF00D006716513050520EF0048
:1003C00090089967739007807D2137850008DD29A3
:1003D0003725000013058508EF00B0273784000893
:1003E000B70401082285CA85130404102123E31BE6
:1003F00094FE378700089305000437060108BA8683
:10040000814788426312F51285079106E39BB7FE88
:10041000854413070710E314C7FE638904103725CA
:1004200000001305050AEF00D02237250000130550
:10043000450CEF00102237850008B1293725000050
:100440001305850DB7290000EF00B02037840008A0
:10045000379A00084E890C401385890E1104EF006D
:10046000100BE31A44FF2945EF00700E37250000FA
:100470001305050FEF00F01D37850008B52E372551
:10048000000013050510EF00D01C37840008B7A941
:1004900000080C401305890E1104EF005007E31A01
:1004A00034FF2945EF00B00A372500001305051178
:1004B000EF00301A37850008312137250000130579
:1004C0004512EF00101937840008B71901080C40D5
:1004D0001305890E1104EF009003E31A34FF294538
:1004E000EF00F006452E371702405C4393F7F7F70D
:1004F0005CC3EF00E072716513050520EF00A07486
:10050000996793878708739007808320C11103241C
:100510008111268503290111832441118329C110EA
:10052000032A8110156182808144E5B537250000DA
:100530001305450BCDBD4111094506C6C529CD257D
:10054000716513050520012783A5C18037250000AB
:1005500013054513EF00A07B372500001305451454
:10056000EF00300F693185476311F5023725000030
:1005700013058515EF00F00DDD3B09CD3725000093
:100580001305851BEF00F00C01A0372500001305B3
:100590008518CDB7372500001305851EEF00700BB9
:1005A000E5B7B71702409843B706FFF84111136744
:1005B000170098C3D84337060200758FD8C39843F5
:1005C000B706F7FEFD16758F98C39843B706FCFF74
:1005D000FD16758F98C3D843B70681FFFD16758F3A
:1005E000D8C337079F0098C702C402C69843C166A4
:1005F000558F98C3B716024005679C42F18F3EC6DF
:10060000A24785073EC4B24781E7A247E397E7FECA
:10061000B71702409C431397E700635707068547C7
:100620003EC632478547631FF704B7170240D843D9
:10063000B706C1FFFD16D8C3D843D8C3D843136744
:100640000740D8C3D843758FD8C3D843B7063D00F9
:10065000558FD8C39843B7060001558F98C3984368
:1006600093166700E3DD06FED843B7160240719B80
:10067000D8C3D84313672700D8C32147DC42B18BC6
:10068000E39EE7FE4101828002C661BF01A001A096
:1006900001A001A001A001A001A001A001A001A052
:1006A00001A001A001A001A001A001A001A001A042
:1006B00001A001A001A001A001A001A001A001A032
:1006C00001A001A001A001A001A001A001A001A022
:1006D00001A001A001A001A001A001A001A001A012
:1006E00001A001A001A001A001A001A001A001A002
:1006F00001A001A001A001A0970100209381811712
:100700001721002013010110172500001305C5BA99
:10071000970500209385058F1386018263FAC50033
:100720008322050023A0550011059105E3EAC5FECB
:1007300013850182938501846377B500232005002A
:100740001105E36DB5FEFD42739002BC8D427390BE
:1007500042809302800873A00230970200009382C7
:10076000E28D93E2320073905230EFF09FE39702F4
:100770000000938282DC7390123473002030B7073C
:10078000674537270240938737125CC3B797EFCD91
:100790009387B79A5CC38280372702401C4B93E74C
:1007A00007081CCB8280B7270240C8C78280B727C2
:1007B0000240D8470545058B11EBD8470945118BF9
:1007C00011E7C8474189133515000D058280411195
:1007D00022C426C206C62A848544D13F63189500E8
:1007E00019E0154529A0E1377D14CDBF7DD8B24071
:1007F0002244924441018280411126C2AA843705D5
:100800000B0006C622C4E13791476313F502372473
:1008100002401C4837050B0093E727001CC844C85A
:100820001C4893E707041CC85D371C48F59B1CC88F
:10083000B2402244924441018280011126CAAA8416
:1008400015652EC606CE22CC59379147B245631F97
:10085000F500372402401C48156593E717001CC8B3
:100860002390B400AD371C48F99B1CC8F240624489
:10087000D24405618280B7066745B7270240938658
:1008800036123797EFCDD4C31307B79AD8C3D4D352
:10089000D8D3828011B7B7270240984BB706020021
:1008A000137505F0558F98CBC8CB984B1367070489
:1008B00098CBD847058B75FF984B8176FD16758FC1
:1008C00098CB8280E1777D8DB7270240984BB706A1
:1008D0000400558F98CBC8CB984B1367070498CB6F
:1008E000D847058B75FF984BB706FCFFFD16758F33
:1008F00098CB8280372702401C4BC166137505F0E8
:10090000D58F1CCB5C47858BF5FF372702405C47B2
:10091000898BF5FF3727024013060010B386F500D8
:1009200003A80600B306F50023A006015447898AF0
:10093000F5FE9107E394C7FE1C4BB7062000D58F48
:100940001CCBB7270240D847058B75FF984BC17663
:10095000FD16758F98CB82809C4513F7070113F81D
:10096000F70001C7D8413368E80037170140631723
:10097000E50003D7050035832390E50083D5050006
:1009800013F7F50F39C318418146854E3D4F930F3C
:10099000800293028004214E3396DE00B3F8C50036
:1009A000631116039398260033131F011343F3FFBB
:1009B0003377E300B318180133E7E800639FF705C6
:1009C00050C98506E39AC6FD18C11307F00F637579
:1009D000B70454412146854E3D4F930F8002930248
:1009E0008004414EB398CE0033F715016392E802BC
:1009F0001317260001173313EF001343F3FFB376E9
:100A0000D3003317E800D98E639DF701232A15011F
:100A10000506E319C6FD54C18280E39457FA10C954
:100A20004DB7E39757FE23281501DDB723A4A18214
:100A30008280371702405C439146B18B6385D700B3
:100A4000A1466386D706B7177A00938707201CC193
:100A5000371602405C4237070020130707009183D6
:100A6000BD8BBA9783C607001C41B3D7D7005CC1C2
:100A70005442A1829D8ABA9683C60600B3D6D70097
:100A800014C55442AD829D8A369703470700B3D7F9
:100A9000E7005CC55842398393763700138701819C
:100AA000369703470700B3D7E7021CC982805C432F
:100AB0005843C166C983BD8B758F8907C54663934B
:100AC000D700C94701EF3747024003270780418B12
:100AD00009CF37177A001307072021A837170240DC
:100AE00058439316E700E3D606FE37173D00130779
:100AF0000790B387E702A1BF99C5371702401C4F83
:100B00005D8D08CF8280B7170240984F1345F5FFDF
:100B1000798D88CF828083560501F577FD17F58F93
:100B200083D66500397122DC06DED58F03D7C50078
:100B30002318F5008356C500FD779387379FF58FFF
:100B400083D645002A842EC6D58F83D68500D58FBF
:100B500083D6A500D58F2316F50083574501C2071C
:100B6000C18393F7F7CFD98F231AF5006808D135E1
:100B7000B747014093870780B245631EF404A2572C
:100B80008356C4006547B387E702C206C186984111
:100B900063D5060406070356C4004206B3D7E7022E
:100BA000130740064186B3D6E702B3F7E702920681
:100BB000635706028E0793872703B3D7E70213F71D
:100BC0007700B367D700C207C1832314F400F25043
:100BD000625421618280925765B70A076DBF920700
:100BE00093872703B3D7E702BD8BD58FE9BF81C9B0
:100BF0008357C5000967D98F2316F50082800357F4
:100C0000C500F977FD17F98FC5BF93F5F51F2312BE
:100C1000B5008280035505006D8D3335A0008280BC
:100C200083A7C18037177A0013070720B3D7E702DD
:100C300093F7F70F2387F1821307803EB387E7020C
:100C40002396F1828280797122D42A8411658545A8
:100C5000110506D65535930700202312F1003715EC
:100C600001408D473EC44C00E147130505803EC658
:100C7000E53122C837440140B70708000C081305C6
:100C800004803ECC02CA231E010071351305048086
:100C90008545B13FB250225445618280011126CA78
:100CA000B744014022CC4AC84EC606CEAE8932892E
:100CB000014493840480634A2401F24062444A85DB
:100CC000D2444249B24905618280930500042685D9
:100CD000913765DDB3878900838507002685050484
:100CE000C205C1811D37C1BF138741811C43938653
:100CF00001843E95636BD500B726002093860600DD
:100D000063E5A60008C33E858280FD57EDBF3971BB
:100D10003EDA2ED232D436D63AD842DC46DE93873B
:100D2000818122CC804326CA06CEAA8409C41C4CE9
:100D300099E32285B9230C4454102686228536C6B1
:100D4000EF005019F2406244D244216182800111C7
:100D50009387818122CC804306CEAA8519C41C4C7E
:100D600089E72AC62285312BB24510442285624488
:100D7000F24005616F00F07A011126CA4AC806CE1A
:100D800022CC4EC652C4AA842E8901C51C4D91E3C3
:100D9000CD299C4C804499E32685E52197170000D6
:100DA0009387C749631CF402C0408357C400A18BDA
:100DB000B1C71C48A1C7FD59294A1C4483450900F5
:100DC000FD17B1E91CC463DE07062286A945268506
:100DD0007120FD576308F502294535A097170000DB
:100DE0009387C7476314F4008044C1B79717000086
:100DF0009387C742E31BF4FAC04445BFA28526850A
:100E0000312A55D97D55F2406244D2444249B24913
:100E1000224A056182801CC4050963D70700184C6B
:100E200063CBE700638945011C401387170018C096
:100E30002380B70059B7228626850D20E31F35F79A
:100E4000D1B71C401387170018C029472380E7003B
:100E500061B793878181AA85884339BF011122CC6C
:100E600026CA4AC806CE4EC6AA842E89328401C537
:100E70001C4D91E33921971700009387273C631994
:100E8000F406C0401C4C1CC48357C400A18BC9C3CA
:100E90001C48BDCF1C4808409379F90F1379F90F0E
:100EA0001D8D5C486346F500A2852685652C2DE5E1
:100EB0001C440505FD171CC41C401387170018C0EF
:100EC000238037015C486389A7008357C400858B62
:100ED00081CBA9476316F900A285268561240DED13
:100EE000F24062444A85D2444249B2490561828057
:100EF00097170000938787366314F400804459B72E
:100F00009717000093878731E31EF4F6C0449DBF16
:100F1000A285268521203DDD7D59D9B741119387D2
:100F2000818126C2844322C44AC006C62A892E84EF
:100F300089C49C4C99E32685A926971700009387BE
:100F4000E72F631CF402C0400317C4009317070186
:100F5000C18393F68700B5EE93F607019DEEA54792
:100F60002320F900136707042316E4007D55B240DF
:100F700022449244024941018280971700009387DE
:100F8000E72D6314F4008044C1B7971700009387DE
:100F9000E728E31BF4FAC04445BF918B8DC74C583A
:100FA00089C9930744046384F5004A85352B232AB5
:100FB00004028357C4002322040093F7B7FD2316CD
:100FC000F4001C481CC08357C40093E78700231615
:100FD000F4001C4881EF8357C4001307002093F7E7
:100FE00007286385E700A2854A8585218357C400C9
:100FF00013F7170005C75C4823240400B307F0402B
:101000001CCC1C480145A5F78317C40013F707083B
:1010100039DF93E707042316F40089BF898B014762
:1010200091E3584818C4F1BF83D7C500011122CC01
:1010300026CA06CE4AC84EC613F78700AA842E8455
:1010400071EFD841634DE000B841634AE0000145CB
:10105000F2406244D2444249B24905618280585408
:101060007DD703A904009396370123A0040063DD14
:10107000060670488357C400918B99C75C401D8E4B
:101080005C5899C33C401D8E5C540C5081462685AB
:101090008297FD570357C400631DF5009440F54740
:1010A00063E8D706B70740208507B3D7D700858BFD
:1010B000A5C31C48232204001CC09317370163D822
:1010C0000700FD576314F5009C4091E368C84C5835
:1010D00023A02401ADDD930744046384F500268535
:1010E0002121232A0402A5B70C50014685462685F6
:1010F0000297FD572A86E31FF5F69C40A5DF75474A
:101100006385E70059476394E70423A0240181B76E
:10111000136707042316E4007D551DBF83A905014D
:10112000E38709F203A905008D8B23A0350133095C
:101130003941014791E3D84918C4E35A20F11C54BE
:101140000C50CA864E86268582976349A000835735
:10115000C40093E707042316F4007DBFAA9933095E
:10116000A940E1BF9C49B9CF011122CC06CE2A8407
:1011700011C51C4D81E72EC62922B24597170000E4
:101180009387C70B639BF5004C408397C50095C7B9
:1011900022856244F240056141BD971700009387A4
:1011A000E70B6394F5000C44CDB7971700009387C5
:1011B000E706E39CF5FC4C44C9BFF240624401459C
:1011C0000561828001458280411122C406C62A84BD
:1011D0002316B5002317C500232005002322050090
:1011E000232405002322050623280500232A0500C1
:1011F000232C0500214681451305C505EFE05FF46A
:1012000097170000938727BD5CD09717000093873E
:1012100087BF1CD4971700009387C7C35CD4971768
:101220000000938787C600D01CD8B24022444101F9
:10123000828097050000938525F3A9A2411126C25B
:10124000130680069384F5FFB384C4024AC02E8936
:1012500022C406C693854407252E2A8401CD232067
:10126000050023222501310508C413868406814523
:10127000EFE01FED2285B240224492440249410131
:1012800082801C4DADE3411106C622C497070000C1
:10129000938767FA1CD59387C1819C432324050457
:1012A00023260504232805046314F50085471CCD77
:1012B0002A841D2848C02285052808C422852D209F
:1012C00048C4484001469145013708440546A545B4
:1012D000E53D48440946C945C53D85471CCCB2405B
:1012E000224441018280828041119387C18126C2BC
:1012F00084434AC006C69C4C22C42A8999E32685A9
:101300004937938484048044DC40FD1763D607008A
:101310009C40B9CF8440C5BF0317C40039E7C177EB
:10132000850723220406232004002322040023240B
:1013300004005CC423280400232A0400232C040096
:10134000214681451305C405EFE09FDF232A0402EF
:10135000232C040223240404232604042285B240FF
:10136000224492440249410182801304840671BFE1
:1013700091454A85E13588C051FDB1472320F900E8
:101380000144E9BF797122D44AD052CC56CA5AC816
:101390005EC606D626D24ECE2A8AAE8A13048504AD
:1013A0000149054BFD5B09ECB25022544A85925429
:1013B0000259F249624AD24A424BB24B456182809D
:1013C000044483294400FD1963D409000040E1BFAF
:1013D00083D7C400637BFB008397E40063877701B6
:1013E000A6855285829A3369A90093848406E1BF59
:1013F0001971A6DAAE848395E500A2DC86DE32841C
:1014000063DC050083D7C40023A0060093F7070818
:1014100085E7930700401DA0300836C6EF00702C0A
:10142000B246E34105FE7247BD67F98F7977BA97F7
:1014300093B717009CC2F1BF930700041CC0F6507D
:101440006654D65401450961828083D7C5000111D5
:1014500022CC06CE26CA4AC8898B2E8489CF930710
:1014600074041CC01CC885475CC8F2406244D24466
:1014700042490561828074003000AA84953FA245EC
:101480002A892685312201ED8317C40013F707202E
:1014900069FFF19B93E727002316F400C9B797076C
:1014A0000000938747D99CD48357C40008C008C85C
:1014B00093E707082316F400A2475CC8B24791CF10
:1014C0008315E4002685EF00702401C98357C4000A
:1014D000F19B93E717002316F4008357C400336988
:1014E000F9002316240151B7DDC183A7C5FF4111BF
:1014F00022C406C626C21384C5FF63D307003E94E8
:10150000AA84EF009027938701839C4381EF2322D5
:10151000040023A881822244B240268592444101DE
:101520006F00D025637EF40014403307D400639627
:10153000E7009843DC43369718C05CC0D9BFBA8730
:10154000D84319C3E37DE4FE94433386D700631F79
:1015500086001040B29694C33386D700E31DC7FAC5
:1015600010435843B29694C3D8C375B76375C4008B
:10157000B1479CC04DB71040B306C4006316D700F6
:1015800014435843B29614C058C0C0C369B7828090
:10159000011126CA93843500F19806CE22CC4AC8A0
:1015A0004EC6A104B14763F5F404B14463E4B40446
:1015B0002A89EF00901C9387018398433A8429E499
:1015C000938741839C4399E781454A85EF00C07D1D
:1015D00023AAA182A6854A85EF00007DFD596319E3
:1015E0003507B1472320F9004A85EF00301929A0BB
:1015F000E3DE04FAB1471CC10145F2406244D24423
:101600004249B249056182801C40858F63CF070241
:10161000AD4663F6F6001CC03E9404C031A05C40A9
:101620006313870223A8F1824A85EF003015130562
:10163000B4009307440061993307F5405DDF3A94A5
:10164000898F1CC05DBF5CC3C5B72287404085BF82
:10165000130435007198E30285FCB305A4404A8564
:10166000A127E31C35FBB5BF1C46FD171CC663DA7A
:101670000700184E63C5E700A9476394F5006FF0B3
:10168000EFFD1C422E851387170018C22380B70078
:101690008280011122CC26CA4AC84EC652C406CE48
:1016A0002A89AE893284B304D6007D5A631494002B
:1016B000014509A8834504004E864A85753705040F
:1016C000E31645FFF2406244D2444249B249224AFD
:1016D00005618280357122CD26CB4AC94EC706CF1F
:1016E00052C556C35AC1DEDEE2DCE6DAAA89AE8410
:1016F0003289368401C51C4D91E36136971700008D
:101700009387C7B3639CF40C83A4490083D7C400B8
:10171000A18BFDC79C48EDC793070002A304F1020B
:101720009307000302D22305F10222C6930B500255
:10173000971A0000938A8AB4054C294B4A84834740
:10174000040099C36391770FB30C2441638D0C009F
:10175000E6864A86A6854E852D3FFD576307F51E12
:101760009256E69636D2834704006380071EFD57E3
:101770001309140002C802CE3ECA02CCA309010418
:1017800082D48345090015465685EF00607D130419
:101790001900C24759E913F7070109C713070002E7
:1017A000A309E10413F7870009C71307B002A309CF
:1017B000E104834609001307A0026380E608F247AC
:1017C0004A84814625460347040093051400130705
:1017D00007FD6379E60AB5CA3ECE85A897170000D3
:1017E0009387C7A76395F40083A4890005B797176B
:1017F00000009387A7A2E39BF4F083A4C90039B744
:10180000A6854E85EFF08FF101D97D55FA406A44E7
:10181000DA444A49BA492A4A9A4A0A4BF65B665C54
:10182000D65C0D618280050419BF3305554133151F
:10183000AC00C98F3EC82289A9B73247930647003A
:10184000184336C6634907023ACE0347040093079C
:10185000E002631FF704034714009307A002631B11
:10186000F702B2470904138747009C433AC663C195
:1018700007023ECA35A83307E04093E727003ACE77
:101880003EC8E1B7B387670385462E84BA9725BF64
:10189000FD57C5B7050402CA81468147254603475F
:1018A000040093051400130707FD6376E606F1F2C2
:1018B000834504000D46171500001305A59C4D2512
:1018C00011CD971700009387E79B1D8D93070004A8
:1018D000B397A700424505045D8D2AC883450400DF
:1018E0001946171500001305259A1309140023043F
:1018F000B102BD253DC197E7FFFF9387A77095E72C
:101900004247B2471377071009CF91073EC6925757
:10191000D2973ED225B5B387670385462E84BA9702
:10192000BDBF9D07E19BA107D5B7780097060000D2
:10193000938666D626860C084E8597000000E70041
:101940000000FD572A8AE314F5FC83D7C40093F7FF
:101950000704E39C07EA125555BD7800970600007E
:10196000938666D326860C084E85012AD9BF7971E5
:1019700056CA9C49BA8A984522D426D24ECE52CC19
:1019800006D64AD05AC85EC6AA892E84B284368A40
:1019900063D3E700BA879CC00347340419C38507A3
:1019A0009CC01C4093F7070281C79C4089079CC0DC
:1019B0000329040013796900631A0900130B9401C9
:1019C000FD5B5C449840998F634CF9041C4083464E
:1019D000340493F70702B336D000A5EB13063404A2
:1019E000D2854E85829AFD576303F5041C4011464B
:1019F0009840998B544481446397C700B384E64070
:101A000063D3040081441C4418486354F700998F41
:101A1000BE94014969047D5B63982405014509A8CA
:101A200085465A86D2854E85829A631E75017D55FC
:101A3000B250225492540259F249624AD24A424B5D
:101A4000B24B456182800509ADBF3307D400130650
:101A50000003A301C7040347540493871600A29709
:101A60008906A381E7049DBF85462286D2854E85DF
:101A7000829AE30E65FB050945B7797122D426D217
:101A80004AD04ECE06D652CC56CA5AC8B68983C65C
:101A90008501930790063289AA842E841386350423
:101AA000638DF60263E2D706930780056387F61815
:101AB00063EDD7006380062293073004638EF60A35
:101AC000930A24042301D404C9A093073006638534
:101AD000F60A93074006E395F6FE1C40084393F68A
:101AE000070893054500C5C61C410CC363D8070011
:101AF0001307D002B307F040A301E40497060000E7
:101B00009386067929476DA8930700076383F61625
:101B100063E5D7029307E006638AF6189307F00699
:101B2000E390F6FA0C401C4313F8050813854700B0
:101B30006307080608C39C438DA893075007E383F7
:101B4000F6FE93078007638AF61293073007E3993E
:101B5000F6F61C43D04181459386470014C383AAFF
:101B600007005685F52E01C53305554148C05C4038
:101B70001CC8A301040471A81C43930A240493867F
:101B800047009C4314C32301F4048547D5B793F65B
:101B900007041C410CC3B9DAC207C18781BF93F5A2
:101BA000050408C3C9D983D707001307F006638764
:101BB000E60E970600009386A66D2947A30104044C
:101BC0004C400CC463C5050008406D9908C099E3FA
:101BD000B28A91CDB28AB3F5E702FD1AB69583C5F4
:101BE00005002380BA00B3D5E70263FFE70AA147E7
:101BF000631EF7001C40858B91CB58401C4863C77F
:101C0000E70093070003A38FFAFEFD1A330656413F
:101C100010C84E87CA867000A2852685893B7D5AEA
:101C2000631E450B7D55B250225492540259F2491D
:101C3000624AD24A424B45618280A382D50497060C
:101C400000009386E6640C40084313F805081C4125
:101C50001105630D080208C313F7150001C793E5CA
:101C600005020CC04147B9FB0C4093F5F5FD0CC0D3
:101C7000B1B79C4193E707029CC193078007A30279
:101C8000F404970600009386E66175BF13F8050417
:101C900008C3E30308FCC207C1837DBF97060000A9
:101CA0009386065F214719BFAE8735B794411C4321
:101CB000CC4913F80608138547006306080008C3DB
:101CC0009C438CC301A808C393F606049C43F5DA31
:101CD0002390B70023280400B28A25BF14485686F3
:101CE000CA8526858299E30F45F31C40898B8DE7D1
:101CF000B2474844E359F5F23E8535B785465686E6
:101D0000CA8526858299E30F65F1050A5C4432474E
:101D1000998FE345FAFEE9BF014A930A94017D5B7E
:101D2000F5B7011122CC06CE2A8409C91C4D99E7CA
:101D300032C62EC4EFF0EFD43246A245970700001A
:101D40009387C74F6316F60250401C46FD171CC60A
:101D500063D00704184E63C7E70093F7F50F2947D0
:101D60006398E70222856244F24005616FF00F8FAD
:101D7000970700009387874E6314F6001044F1B76D
:101D80009707000093878749E311F6FC504475BF1D
:101D90001C4213F5F50F1387170018C22380B700F4
:101DA000F240624405618280411122C42A842E855A
:101DB00023AE018206C6EFE03FF3FD576317F5003F
:101DC0009387C1839C4391C31CC0B240224441010C
:101DD0008280411122C42E848395E50006C64522E7
:101DE000634905007C48AA977CC8B240224441015F
:101DF00082808357C4007D777D17F98F2316F40006
:101E0000EDB783D7C500011122CC26CA4AC84EC6F9
:101E100006CE93F70710AA842E843289B68991C71B
:101E20008395E5008946014631228357C4007D77BA
:101E30007D17F98F2316F4008315E4006244F24005
:101E4000CE864A86B24942492685D24405613DA8DC
:101E5000411122C42E848395E50006C6E128FD5772
:101E60000357C400631BF500FD77FD17F98F231698
:101E7000F400B2402244410182808567D98F231645
:101E8000F40068C8FDB78395E50005A8411122C498
:101E90002A842E85B285368623AE018206C6EFE0FF
:101EA000FFDFFD576317F5009387C1839C4391C300
:101EB0001CC0B240224441018280411122C42A84C4
:101EC0002E8523AE018206C6CD20FD576317F5008F
:101ED0009387C1839C4391C31CC0B24022444101FB
:101EE0008280411122C42A842E85B28523AE0182CC
:101EF00006C6D120FD576317F5009387C1839C4325
:101F000091C31CC0B240224441018280411122C4CD
:101F10002A842E8523AE018206C66520FD576317ED
:101F2000F5009387C1839C4391C31CC0B2402244F7
:101F300041018280411122C42A842E85B2853686D1
:101F400023AE018206C66120FD576317F500938713
:101F5000C1839C4391C31CC0B24022444101828092
:101F600093F5F50F2A966314C500014582808347D7
:101F70000500E38DB7FE0505FDB782808280411123
:101F800022C42A842E85B285368623AE018206C6F7
:101F9000A920FD576317F5009387C1839C4391C324
:101FA0001CC0B2402244410182809307800523AEC9
:101FB000F1827D5582809307800523AEF1827D55A5
:101FC00082809307800523AEF182014582809307CA
:101FD000800523AEF1827D5582809307800523AE74
:101FE000F1827D5582800000464C41534820546563
:101FF00073740000464C415348204572617365205C
:102000004661696C0D000000464C41534820457202
:10201000617365205375630D0000000050726F6797
:1020200072616D696E672E2E2E0D000050726F6703
:1020300072616D204368656B696E672E2E2E0D00F0
:102040004D656D6F72792050726F6772616D2046B9
:1020500041494C210D0000004D656D6F7279205093
:10206000726F6772616D2050415353210D00000063
:10207000464C4153482046617374204D6F6465207F
:10208000546573740000000050726F6772616D20B8
:1020900033324B42797465207374617274000000AE
:1020A00050726F6772616D2033324B4279746520D4
:1020B0007375630050726F6772616D206661696C41
:1020C0000000000045726173652032353642797434
:1020D000652E2E2E000000005265616420344B42B4
:1020E0007974652E2E2E00002530387820000000EF
:1020F000457261736520344B427974652E2E2E0033
:102100005265616420384B427974652E2E2E000092
:1021100045726173652033324B427974652E2E2EE1
:1021200000000000526561642033324B42797465CF
:102130002E2E2E0053797374656D436C6B3A2564B3
:102140000D0A0000466C6173682050726F677261FF
:102150006D20546573740D00E8AFBBE58699E58684
:1021600085E983A820464C41534820E6A087E587AF
:1021700086E7BC96E7A88BE6B58BE8AF95E6889036
:10218000E58A9F0D00000000E8AFBBE58699E58673
:1021900085E983A820464C41534820E6A087E5877F
:1021A00086E7BC96E7A88BE6B58BE8AF95E5A4B1CA
:1021B000E8B4A50D00000000E8AFBBE58699E58610
:1021C00085E983A820464C41534820E5BFABE98010
:1021D0009FE7BC96E7A88BE6B58BE8AF95E68890BD
:1021E000E58A9F0D00000000E8AFBBE58699E58613
:1021F00085E983A820464C41534820E5BFABE980E0
:102200009FE7BC96E7A88BE6B58BE8AF95E5A4B150
:10221000E8B4A50D00000000000000000000000070
:1022200000000000000000000000000000000000AE
:10223000000000000000000000000000000000009E
:10224000000000000000000000000000000000008E
:10225000000000000000000000000000000000007E
:10226000000000000000000000000000000000006E
:102270000000000000000000232D302B2000000093
:10228000686C4C0065666745464700003031323364
:102290003435363738394142434445460000000062
:1022A00030313233343536373839616263646566CC
:0422B000000000002A
:1022B40000000000010203040102030406070809E8
:1022C40000000000382200005822000018220000FC
:1022D40000000000000000000000000000000000FA
:1022E40000000000000000000000000000000000EA
:1022F40000000000000000000000000000000000DA
:1023040000000000000000000000000000000000C9
:1023140000000000000000000000000000000000B9
:10232400AAAA00000400000001000000004495086F
:1023340002040608B0000020100000201000002055
:00000001FF
